:060000000A128A11E62F2E
:1000080001300A168A1193200A128A1180300A16C2
:100018008A1193200800831203139F111F129F1245
:10002800043070067104031924287108803AFF000F
:1000380080307F02031D222805307002031C3A28F5
:100048007108803AFF0080307F02031D2D28083098
:10005800700203183A28831203139F167008FC3E97
:10006800F00071080318013EFF3EF10002307006EF
:10007800710403194A287108803AFF0080307F0212
:10008800031D482803307002031C60287108803A59
:10009800FF0080307F02031D5328043070020318CC
:1000A8006028831203131F167008FE3EF0007108C3
:1000B8000318013EFF3EF10070037104031D0800A0
:1000C800831203139F157008FF3EF0007108031890
:1000D800013EFF3EF1000800031306142930B40066
:1000E8009630B300A630B200B20B7828B30B78284C
:1000F800B40B7828772C7D08803A83120313B2005A
:100108002308803A3202031D8B2822087C02031838
:10011800B52E831203132508803AB2007D08803A71
:100128003202031D99287C0824020318B52E7D0885
:10013800803A83120313B2002708803A3202031D63
:10014800A72826087C020318B52E83120313290852
:10015800803AB2007D08803A3202031DB5287C0837
:1001680028020318B52E0A128A1104200A128A11CD
:100178000030F1008830F2000A168A11FA200A12BB
:100188008A118630F5008830F6000A168A11BD20DB
:100198000A128A110230F5000030F6000A168A1198
:1001A80067200A128A117A30F5008930F6000A169B
:1001B8008A11BD200A128A118312031306142930EA
:1001C800B4009630B300A630B200B20BE928B30BE6
:1001D800E928B40BE928772C7D08803A83120313A9
:1001E800B2002308803A3202031DFC2822087C0250
:1001F8000318C32E831203132508803AB2007D0822
:10020800803A3202031D0A297C0824020318C32EEF
:10021800831203132708803AB2007D08803A32021D
:10022800031D18297C0826020318C32E7D08803A6E
:1002380083120313B2002908803A3202031D2629CB
:1002480028087C020318C32E0A128A1104200A12F5
:100258008A110030F1008830F2000A168A11FA205B
:100268000A128A118630F5008830F6000A168A11BB
:10027800BD200A128A110230F5000030F6000A1675
:100288008A1167200A128A118230F5008930F60037
:100298000A168A11BD200A128A1183120313061442
:1002A8002930B4009630B300A630B200B20B5A29F8
:1002B800B30B5A29B40B5A29772C7D08803A83123C
:1002C8000313B2002308803A3202031D6D29220865
:1002D8007C020318D12E831203132508803AB2003A
:1002E8007D08803A3202031D7B297C08240203180A
:1002F800D12E831203132708803AB2007D08803A72
:100308003202031D89297C0826020318D12E831284
:1003180003132908803AB2007D08803A3202031D8F
:1003280097297C0828020318D12E0A128A11042062
:100338000A128A110030F1008830F2000A168A1178
:10034800FA200A128A118630F5008830F6000A165B
:100358008A11BD200A128A110230F5000030F60019
:100368000A168A1167200A128A118A30F500893024
:10037800F6000A168A11BD200A128A118312031385
:1003880006142930B4009630B300A630B200B20B80
:10039800CB29B30BCB29B40BCB29772C83120313AE
:1003A8002308803AB2007D08803A3202031DDE2914
:1003B8007C0822020318DF2E7D08803A831203137B
:1003C800B2002508803A3202031DEC2924087C0279
:1003D8000318DF2E7D08803A83120313B200270822
:1003E800803A3202031DFA2926087C020318DF2E00
:1003F8007D08803A83120313B2002908803A32023A
:10040800031D082A28087C020318DF2E0A128A1105
:1004180004200A128A110030F1008830F2000A160E
:100428008A11FA200A128A118630F5008830F600FF
:100438000A168A11BD200A128A110230F50000300E
:10044800F6000A168A1167200A128A119230F500FE
:100458008930F6000A168A11BD200A128A11831201
:10046800031306142930B4009630B300A630B20046
:10047800B20B3C2AB30B3C2AB40B3C2A772C8312D0
:1004880003132308803AB2007D08803A3202031D24
:100498004F2A7C0822020318ED2E7D08803A831229
:1004A8000313B2002508803A3202031D5D2A24088E
:1004B8007C020318ED2E7D08803A83120313B200E4
:1004C8002708803A3202031D6B2A26087C0203188B
:1004D800ED2E831203132908803AB2007D08803A72
:1004E8003202031D792A7C0828020318ED2E0A120D
:1004F8008A1104200A128A110030F1008830F200B3
:100508000A168A11FA200A128A118630F5008830F4
:10051800F6000A168A11BD200A128A110230F50067
:100528000030F6000A168A1167200A128A119A30DA
:10053800F5008930F6000A168A11BD200A128A11C0
:100548008312031306142930B4009630B300A63082
:10055800B200B20BAD2AB30BAD2AB40BAD2A772C7F
:10056800831203132308803AB2007D08803A3202CE
:10057800031DC02A7C0822020318FB2E7D08803A3E
:1005880083120313B2002508803A3202031DCE2AD3
:1005980024087C020318FB2E831203132708803AD1
:1005A800B2007D08803A3202031DDC2A7C0826024C
:1005B8000318FB2E7D08803A83120313B200290822
:1005C800803A3202031DEA2A28087C020318FB2E0F
:1005D8000A128A1104200A128A110030F1008830A8
:1005E800F2000A168A11FA200A128A118630F500DA
:1005F8008830F6000A168A11BD200A128A110230C4
:10060800F5000030F6000A168A1167200A128A11CE
:10061800A230F5008930F6000A168A11BD200A12A8
:100628008A118312031306142930B4009630B300DC
:10063800A630B200B20B1E2BB30B1E2BB40B1E2B15
:10064800772C831203132308803AB2007D08803A7E
:100658003202031D312B7C0822020318092F7D0862
:10066800803A83120313B2002508803A3202031D30
:100678003F2B24087C020318092F83120313270831
:10068800803AB2007D08803A3202031D4D2B7C0867
:1006980026020318092F831203132908803AB2008F
:1006A8007D08803A3202031D5B2B7C082802031860
:1006B800092F0A128A1104200A128A110030F10047
:1006C8008830F2000A168A11FA200A128A11863036
:1006D800F5008830F6000A168A11BD200A128A1120
:1006E8000230F5000030F6000A168A1167200A1257
:1006F8008A11BC30F5008930F6000A168A11BD202F
:100708000A128A118312031306142930B400963092
:10071800B300A630B200B20B8F2BB30B8F2BB40BE8
:100728008F2B772C831203132308803AB2007D089D
:10073800803A3202031DA22B7C0822020318172FCD
:10074800831203132508803AB2007D08803A3202EA
:10075800031DB02B7C0824020318172F7D08803A4C
:1007680083120313B2002708803A3202031DBE2BFE
:1007780026087C020318172F7D08803A831203137A
:10078800B2002908803A3202031DCC2B28087C02CB
:100798000318172F0A128A1104200A128A1100302E
:1007A800F1008830F2000A168A11FA200A128A111A
:1007B8008630F5008830F6000A168A11BD200A1224
:1007C8008A110230F5000030F6000A168A116720F7
:1007D8000A128A11AE30F5008930F6000A168A111D
:1007E800BD200A128A118312031306142930B4009B
:1007F8009630B300A630B200B20B002CB30B002C1D
:10080800B40B002C772C831203132308803AB20010
:100818007D08803A3202031D132C7C08220203183B
:10082800252F831203132508803AB2007D08803AE9
:100838003202031D212C7C0824020318252F7D0871
:10084800803A83120313B2002708803A3202031D4C
:100858002F2C26087C020318252F8312031329083E
:10086800803AB2007D08803A3202031D3D2C7C0894
:1008780028020318252F0A128A1104200A128A1145
:100888000030F1008830F2000A168A11FA200A12A4
:100898008A118630F5008830F6000A168A11BD20C4
:1008A8000A128A110230F5000030F6000A168A1181
:1008B80067200A128A116630F5008930F6000A1698
:1008C8008A11BD200A128A118312031306142930D3
:1008D800B4009630B300A630B200B20B712CB30B43
:1008E800712CB40B712C8312031306100A128A118F
:1008F80004200A128A110030F200F3000A168A1145
:1009080082210A128A11730883120313AB0072083A
:10091800AA000030F200F3000A168A1182210A1296
:100928008A11730883120313A1007208A0002B0810
:10093800FA002A08F9000A128A158D260A128A1165
:10094800B630F5008930F6000A168A11BD200A1261
:100958008A110130F2000030F3000A168A11822150
:100968000A128A11730883120313AB007208AA00D3
:100978000130F2000030F3000A168A1182210A12AF
:100988008A11730883120313A3007208A2002B08AC
:10099800FA002A08F9000A128A158D260A128A1105
:1009A800B630F5008930F6000A168A11BD200A1201
:1009B8008A110230F2000030F3000A168A118221EF
:1009C8000A128A11730883120313AB007208AA0073
:1009D8000230F2000030F3000A168A1182210A124E
:1009E8008A11730883120313A5007208A4002B0848
:1009F800FA002A08F9000A128A158D260A128A11A5
:100A08000230F5000030F6000A168A1167200A1233
:100A18008A110330F2000030F3000A168A1182218D
:100A28000A128A11730883120313AB007208AA0012
:100A38000330F2000030F3000A168A1182210A12EC
:100A48008A11730883120313A7007208A6002B08E3
:100A5800FA002A08F9000A128A158D260A128A1144
:100A6800B630F5008930F6000A168A11BD200A1240
:100A78008A110430F2000030F3000A168A1182212C
:100A88000A128A11730883120313AB007208AA00B2
:100A98000430F2000030F3000A168A1182210A128B
:100AA8008A11730883120313A9007208A8002B087F
:100AB800FA002A08F9000A128A158D260A128A11E4
:100AC800063083120313B4001330B300B130B20000
:100AD800B20B6C2DB30B6C2DB40B6C2D732D8312D4
:100AE80003132108803AB2007D08803A3202031DC0
:100AF8007F2D7C082002031CA42F7D08803A8312D6
:100B08000313B2002108803A3202031D8D2D2008FC
:100B18007C02031CA72F7D08803A83120313B200BE
:100B28002108803A3202031D9B2D20087C02031CF9
:100B3800AA2F7D08803A83120313B2002108803A55
:100B48003202031DA92D20087C02031CAD2F7D084D
:100B5800803A83120313B2002108803A3202031D3F
:100B6800B72D20087C02031CB02F7D08803A831221
:100B78000313B2002108803A3202031DC52D200854
:100B88007C02031CB32F7D08803A83120313B20042
:100B98002108803A3202031DD32D20087C02031C51
:100BA800B62F7D08803A83120313B2002108803AD9
:100BB8003202031DE12D20087C02031CB92F7D0899
:100BC800803A83120313B2002108803A3202031DCF
:100BD800EF2D20087C02031CBC2F7D08803A83126D
:100BE8000313B2002108803A3202031DFD2D2008AC
:100BF8007C02031CBF2F7D08803A83120313B200C6
:100C08002108803A3202031D0B2E20087C02031CA7
:100C1800C22F7D08803A83120313B2002108803A5C
:100C28003202031D192E20087C02031CC52F7D08E3
:100C3800803A83120313B2002108803A3202031D5E
:100C4800272E20087C02031CC82F7D08803A8312B7
:100C58000313B2002108803A3202031D352E200802
:100C68007C02031CCB2F7D08803A83120313B20049
:100C78002108803A3202031D432E20087C02031CFF
:100C8800CE2F7D08803A83120313B2002108803AE0
:100C98003202031D512E20087C02031CD12F7D082F
:100CA800803A83120313B2002108803A3202031DEE
:100CB8005F2E20087C02031CD42F83120313210803
:100CC800803AB2007D08803A3202031D6D2E7C08FE
:100CD8002002031CD72F831203132108803AB20085
:100CE8007D08803A3202031D7B2E7C082002031CFB
:100CF800DA2F831203132108803AB2007D08803A64
:100D08003202031D892E7C082002031CDD2F83126A
:100D180003132108803AB2007D08803A3202031D8D
:100D2800972E7C082002031CE02F8312031321084E
:100D3800803AB2007D08803A3202031DA52E7C0855
:100D48002002031CE32F831203132108803AB20008
:100D58007D08803A3202031DB32E7C082002031C52
:100D68007F28831203132108803AB2007D08803A55
:100D78003202031DC12E7C082002031CF0288312B6
:100D880003132108803AB2007D08803A3202031D1D
:100D9800CF2E7C082002031C61298312031321082B
:100DA800803AB2007D08803A3202031DDD2E7C08AD
:100DB8002002031CD229831203132108803AB200AF
:100DC8007D08803A3202031DEB2E7C082002031CAA
:100DD800432A831203132108803AB2007D08803A1F
:100DE8003202031DF92E7C082002031CB42A831248
:100DF80003132108803AB2007D08803A3202031DAD
:100E0800072F7C082002031C252B831203132108BB
:100E1800803AB2007D08803A3202031D152F7C0803
:100E28002002031C962B831203132108803AB20078
:100E38007D08803A3202031D232F7C082002031C00
:100E4800072C831203132108803AB2007D08803AE8
:100E58003202031D312F7C08200203187A2C8312DA
:100E680003132308803AB2007D08803A3202031D3A
:100E78003F2F7C08220203187A2C831203132508BB
:100E8800803AB2007D08803A3202031D4D2F7C085B
:100E9800240203187A2C831203132708803AB2001D
:100EA8007D08803A3202031D5B2F7C082602031856
:100EB8007A2C7D08803A83120313B2002908803AFD
:100EC8003202031D692F28087C0203187A2C0A12A3
:100ED8008A1104200A128A115630F1008930F20072
:100EE8000A168A11FA200A128A11B230F5008930DE
:100EF800F6000A168A11BD200A128A110230F5007E
:100F08000030F6000A168A1167200A128A11723018
:100F1800F5008930F6000A168A11BD200A128A11D6
:100F28008312031306142930B4009630B300A63098
:100F3800B200B20B9D2FB30B9D2FB40B9D2F772CB6
:100F48000A128A15EC2D0A128A15272E0A128A15FA
:100F5800BD2C0A128A152E2D0A128A15D22B0A12B6
:100F68008A15432C0A128A15E72A0A128A15582B61
:100F78000A128A15FC290A128A156D2A0A168A117C
:100F8800262F0A168A11972F0A168A113B2E0A163F
:100F98008A11AC2E0A168A11502D0A168A11C12DF3
:100FA8000A168A11652C0A168A11D62C0A168A1175
:100FB8007A2B0A168A11EB2B0A168A118F2A0A161F
:100FC8008A11002BA001A101A201A301A401A5017E
:100FD800A601A701A801A901AA01AB010A128A1555
:100FE800BF210A128A11FC000A128A15C021FD00CD
:100FF80083010A128A15972D4734453453345434E3
:1010080055345234453420344E344F34543420341B
:1010180049344D3450344C3445344D3445344E34D1
:101028005434453444340D340A34003449342034BB
:101038004E34453445344434203453344F344D34DD
:1010480045342034573441345434453452340D3403
:101058000A340034493420344E3445344534443459
:1010680020344134203444344F34433454344F34DE
:1010780052340D340A34003448344134563445343B
:101088002034413420344E344934433445342034F8
:101098004434413459340D340A340034493420344A
:1010A8004E34453445344434203453344F344D346D
:1010B80045342034573441345434453452340034A0
:1010C80050344C3445344134533445342034483456
:1010D80045344C34503420344D3445340D340A34BE
:1010E800003447344F344F34443420344134463488
:1010F8005434453452344E344F344F344E340D3416
:101108000A3400344E344F345434203449344D3486
:1011180050344C3445344D3445344E3454344534CD
:10112800443400344834413456344534203441344E
:1011380020344E3449344334453420344434413423
:101148005934003447344F344F34443420344D3408
:101158004F3452344E3449344E3447340D340A3403
:10116800003450344C3445344134533445342034FD
:10117800483445344C34503420344D3445340034EC
:1011880047344F344F344434203441344634543493
:10119800453452344E344F344F344E34003448348E
:1011A8004F34573420344134523445342034593480
:1011B8004F3455340D340A34003447344F344F34E7
:1011C800443420344E3449344734483454340D348C
:1011D8000A340034483441344E34443420344734DB
:1011E8004534533454345534523445340034473438
:1011F8004F344F34443420344D344F3452344E3409
:1012080049344E3447340034493420344E3445345C
:1012180045344434203444344F3454344F345234F5
:101228000034453458344334553453344534203429
:101238004D3445340D340A34003452344534433483
:101248004F3447344E344934543449344F344E348F
:10125800003448344F345734203441345234453400
:10126800203459344F345534003447344F344F34D4
:10127800443420344E3449344734483454340034E8
:1012880045345834433455345334453420344D347C
:1012980045340034483445344C344C344F340D34E0
:1012A8000A3400344234593445340D340A34003495
:1012B800483445344C344C344F34003432343034B0
:1012C8002034003433343034203400343134313471
:1012D800203400343234313420340034333431345F
:1012E800203400343134323420340034323432344F
:1012F800203400343134333420340034323433343D
:10130800203400343134343420340034323434342A
:101318002034003431343534203400343234353418
:101328002034003431343634203400343234363406
:1013380020340034313437342034003432343734F4
:1013480020340034313438342034003431343934E2
:10135800203400343234393420340034423459349F
:1013680045340034203420340034313430340034EF
:1013780032343834003434340334F4008312031321
:1013880006150F30F200720886057408F039F2006D
:10139800720886040A168A117A200A128A150F30F2
:1013A800F200720883120313860574080F39F200DD
:1013B80003300310F20DFF3E031DDD290310720DEB
:1013C800F300730886040A168A117A2008000313AA
:1013D80006142930B4009630B300A630B200B20B20
:1013E800F329B30BF329B40BF3290A128A11772CCA
:1013F8007D08803A83120313B2002308803A320230
:10140800031D082A22087C020318D02A831203131A
:101418002508803AB2007D08803A3202031D162A58
:101428007C0824020318D02A831203132708803A61
:10143800B2007D08803A3202031D242A7C08260265
:101448000318D02A831203132908803AB2007D08B2
:10145800803A3202031D322A7C0828020318D02A57
:101468000A128A1104200A128A152E30F1008830D7
:10147800F2000A168A11FA200A128A150830F500B5
:101488008930F6000A168A11BD200A128A15023020
:10149800F5000030F6000A168A1167200A128A152C
:1014A800A730F5008930F6000A168A11BD200A1205
:1014B8008A158312031306142930B4009630B3003A
:1014C800A630B200B20B662AB30B662AB40B662AA2
:1014D800F929831203132308803AB2007D08803A61
:1014E8003202031D792A7C0822020318D32A7D08B8
:1014F800803A83120313B2002508803A3202031D92
:10150800872A24087C020318D32A7D08803A83128C
:101518000313B2002708803A3202031D952A2608D1
:101528007C020318D32A7D08803A83120313B20081
:101538002908803A3202031DA32A28087C020318CE
:10154800D32A0A128A1104200A128A156430F1007B
:101558008830F2000A168A11FA200A128A15B53064
:10156800F5008830F6000A168A11BD200A128A157D
:101578000230F5000030F6000A168A1167200A12B8
:101588008A15AB30F5008930F6000A168A11BD209D
:1015980083120A168A11152F0A128A11F12D0A12BE
:1015A8008A11FF2D031306142930B4009630B300B6
:1015B800A630B200B20BDE2AB30BDE2AB40BDE2A49
:1015C8000A128A11772C7D08803A83120313B2001D
:1015D8002308803A3202031DF32A22087C020318EA
:1015E800BB2B831203132508803AB2007D08803A8A
:1015F8003202031D012B7C0824020318BB2B7D0833
:10160800803A83120313B2002708803A3202031D7E
:101618000F2B26087C020318BB2B831203132908FF
:10162800803AB2007D08803A3202031D1D2B7C08E7
:1016380028020318BB2B0A128A1104200A128A15E1
:101648004030F1008830F2000A168A11FA200A1296
:101658008A159630F5008830F6000A168A11BD20E2
:101668000A128A150230F5000030F6000A168A11AF
:1016780067200A128A159730F5008930F6000A1695
:101688008A11BD200A128A15831203130614293001
:10169800B4009630B300A630B200B20B512BB30B96
:1016A800512BB40B512BE42A7D08803A8312031383
:1016B800B2002308803A3202031D642B22087C0200
:1016C8000318BE2B831203132508803AB2007D0845
:1016D800803A3202031D722B7C0824020318BE2BA9
:1016E800831203132708803AB2007D08803A320239
:1016F800031D802B7C0826020318BE2B7D08803A28
:1017080083120313B2002908803A3202031D8E2B7C
:1017180028087C020318BE2B0A128A1104200A1218
:101728008A151A30F1008830F2000A168A11FA2058
:101738000A128A155230F5008830F6000A168A1106
:10174800BD200A128A150230F5000030F6000A168C
:101758008A1167200A128A159F30F5008930F60031
:101768000A168A11BD2083120A128A15EB290A1259
:101778008A11D52D0A128A11E32D03130614293074
:10178800B4009630B300A630B200B20BC92BB30B2D
:10179800C92BB40BC92B0A128A11772C7D08803A01
:1017A80083120313B2002308803A3202031DDE2B92
:1017B80022087C020318A62C7D08803A83120313A2
:1017C800B2002508803A3202031DEC2B24087C0263
:1017D8000318A62C831203132708803AB2007D0849
:1017E800803A3202031DFA2B7C0826020318A62C25
:1017F800831203132908803AB2007D08803A320226
:10180800031D082C7C0828020318A62C0A128A112A
:1018180004200A128A157530F1008830F2000A1681
:101828008A11FA200A128A15C430F5008830F600A9
:101838000A168A11BD200A128A150230F5000030F6
:10184800F6000A168A1167200A128A158730F500F1
:101858008930F6000A168A11BD200A128A158312E9
:10186800031306142930B4009630B300A630B20032
:10187800B20B3C2CB30B3C2CB40B3C2CCF2B7D086F
:10188800803A83120313B2002308803A3202031D00
:101898004F2C22087C020318A92C83120313250855
:1018A800803AB2007D08803A3202031D5D2C7C0824
:1018B80024020318A92C7D08803A83120313B2006E
:1018C8002708803A3202031D6B2C26087C02031875
:1018D800A92C7D08803A83120313B2002908803AA4
:1018E8003202031D792C28087C020318A92C0A123D
:1018F8008A1104200A128A15E130F1008830F200BA
:101908000A168A11FA200A128A153930F500893028
:10191800F6000A168A11BD200A128A150230F5004F
:101928000030F6000A168A1167200A128A158F30CD
:10193800F5008930F6000A168A11BD2083120A12B2
:101948008A15D62A0A128A11B92D0A128A11C72DA8
:10195800031306142930B4009630B300A630B20041
:10196800B20BB42CB30BB42CB40BB42C0A128A11DE
:10197800772C7D08803A83120313B2002308803A3B
:101988003202031DC92C22087C020318912D7D0800
:10199800803A83120313B2002508803A3202031DED
:1019A800D72C24087C020318912D7D08803A8312D5
:1019B8000313B2002708803A3202031DE52C2608DB
:1019C8007C020318912D831203132908803AB20070
:1019D8007D08803A3202031DF32C7C082802031884
:1019E800912D0A128A1104200A128A15D330F100A7
:1019F8008830F2000A168A11FA200A128A152D3048
:101A0800F5008930F6000A168A11BD200A128A15D7
:101A18000230F5000030F6000A168A1167200A1213
:101A28008A157730F5008930F6000A168A11BD202C
:101A38000A128A158312031306142930B40096304B
:101A4800B300A630B200B20B272DB30B272DB40B71
:101A5800272DBA2C7D08803A83120313B20023087D
:101A6800803A3202031D3A2D22087C020318942D75
:101A78007D08803A83120313B2002508803A3202A7
:101A8800031D482D24087C020318942D8312031388
:101A98002708803AB2007D08803A3202031D562D8D
:101AA8007C0826020318942D7D08803A83120313BC
:101AB800B2002908803A3202031D642D28087C02EE
:101AC8000318942D0A128A1104200A128A15A630C6
:101AD800F1008830F2000A168A11FA200A128A15D3
:101AE800FB30F5008830F6000A168A11BD200A126C
:101AF8008A150230F5000030F6000A168A116720B0
:101B08000A128A157F30F5008930F6000A168A1104
:101B1800BD2083120A128A15C12B0A128A119D2D23
:101B28000A128A11AB2D023083120313B400043059
:101B3800B300BA30B200B20B9F2DB30B9F2DB40B7C
:101B48009F2D0000FF308316031385008601831242
:101B58000313860183160313880183120313880174
:101B68008316031387018312031387010A168A1148
:101B780055200A128A150A168A11D1210A128A15C5
:101B88000A168A1134200A128A150A128A110420A8
:101B98000A128A15EE30F5008830F6000A168A1106
:101BA800BD200A128A150230F5000030F6000A1628
:101BB8008A1167200A128A152130F5008930F6004B
:101BC8000A168A11BD200A128A150A128A117A2C5D
:101BD800831203132308803AB2007D08803A320248
:101BE800031DF82D7C0822020318242E83120313E8
:101BF8002508803AB2007D08803A3202031D062E7D
:101C08007C0824020318242E831203132708803A21
:101C1800B2007D08803A3202031D142E7C08260289
:101C28000318242E831203132908803AB2007D0872
:101C3800803A3202031D222E7C082802031CE92D5B
:101C48000A128A11812D7D08803A83120313B2008B
:101C58002308803A3202031D332E22087C0203181F
:101C68008A2E7D08803A83120313B2002508803A31
:101C78003202031D412E24087C0203188A2E7D0897
:101C8800803A83120313B2002708803A3202031DF8
:101C98004F2E26087C0203188A2E7D08803A83126C
:101CA8000313B2002908803A3202031D5D2E28086A
:101CB8007C0203188A2E0A128A1104200A128A1535
:101CC8004E30F1008930F2000A168A11FA200A1201
:101CD8008A155C30F5008930F6000A168A11BD2095
:101CE8000A128A150230F5000030F6000A168A1129
:101CF80067200A128A156B30F5008930F6000A163B
:101D08008A11BD2083120A128A15AC2C0A128A1174
:101D18008F2D7A08803AFF0080307F02031D962EAF
:101D28000A30790203189E2E7908303E0A128A1565
:101D3800C12108007A08803AFF0080307F02031D25
:101D4800A72E0A307902031CE72E7A08803AFF0092
:101D580080307F02031DB22E643079020318E72E0B
:101D68000A30F0000030F1007A08F3007908F20038
:101D78000A168A1137210A128A1571088312031369
:101D8800B1007008B0000A30F0000030F1007A08A5
:101D9800F3007908F2000A168A1125220A128A1518
:101DA8007108FA007008F9007908303E0A128A159D
:101DB800C1210A128A15831203133008303E0A1211
:101DC8008A15C12108007A08803AFF0080307F0216
:101DD800031DF02E64307902031C5D2F7A08803AC7
:101DE800FF0083307F02031DFB2EE83079020318C1
:101DF8005D2F0A30F0000030F1007A08F30079080E
:101E0800F2000A168A1137210A128A1571088312FC
:101E18000313B1007008B0000A30F0000030F10080
:101E28007A08F3007908F2000A168A1125220A12A4
:101E38008A157108FA007008F9000A30F0000030BD
:101E4800F1007A08F3007908F2000A168A1137219E
:101E58000A128A15710883120313AF007008AE00C6
:101E68000A30F0000030F1007A08F3007908F20037
:101E78000A168A1125220A128A157108FA007008B2
:101E8800F9007908303E0A128A15C1210A128A150A
:101E9800831203132E08303E0A128A15C1210A1232
:101EA8008A15831203133008303E0A128A15C1219D
:101EB80008007A08803AFF0083307F02031D662FEE
:101EC800E8307902031C08007A08803AFF00A7303E
:101ED8007F02031D712F10307902031808000A30A1
:101EE800F0000030F1007A08F3007908F2000A16D1
:101EF8008A1137210A128A15710883120313B10057
:101F08007008B0000A30F0000030F1007A08F300E1
:101F18007908F2000A168A1125220A128A15710810
:101F2800FA007008F9000A30F0000030F1007A0871
:101F3800F3007908F2000A168A1137210A128A1565
:101F4800710883120313AF007008AE000A30F00066
:101F58000030F1007A08F3007908F2000A168A11B5
:101F680025220A128A157108FA007008F9000A3049
:101F7800F0000030F1007A08F3007908F2000A1640
:101F88008A1137210A128A15710883120313AD00CA
:101F98007008AC000A30F0000030F1007A08F30055
:101FA8007908F2000A168A1125220A128A15710880
:101FB800FA007008F9007908303E0A128A15C12122
:101FC8000A128A15831203132C08303E0A128A1546
:101FD800C1210A128A15831203132E08303E0A12F1
:101FE8008A15C1210A128A15831203133008303E5C
:101FF8000A128A15C1210800FF1B0A2883137F18BB
:1020080083170008840A0319FF0A08007F087F392C
:0C2018008A000408840A0319FF0A8200F1
:10205800F000831203130C1E2D2870089900080045
:10206800FF30831603138500831203131F139F1376
:10207800831603139F17831203131F141F110800DD
:10208800F3008312031306110F30F200720886055D
:102098007308F039F200720886040A168A117A2049
:1020A800080083160313871707171815333099008C
:1020B80083120313981783160313981618128312A2
:1020C80003131816080075037604031D7028803062
:1020D8000A168A1193200800023075067604031D3B
:1020E8000800C0300A168A11932008000330F10056
:1020F8009730F000F00B7E28F10B7E28832883129E
:10210800031386150330F1009730F000F00B8A288E
:10211800F10B8A288F288312031386110800F40014
:102128008312031306110F30F20072088605740833
:10213800F039F200720886040A168A117A200A1603
:102148008A110F30F200720883120313860574088F
:102158000F39F20003300310F20DFF3E031DAF28C4
:102168000310720DF300730886040A168A117A2088
:102178000800FA01FB017A087507F8007608F700ED
:102188000318F70AFA1BF7037708F900790883128E
:102198000313FF00780884000A168A1100200A1623
:1021A8008A11003A031908007A087507F8007608BA
:1021B800F7000318F70AFA1BF7037708F9007908FC
:1021C80083120313FF00780884000A168A1100207E
:1021D8000A168A110A128A15C1210A168A110130B3
:1021E800FA070318FB0A0030FB07BF28F601F701BE
:1021F80076087107F4007208F3000318F30AF61B57
:10220800F3037308F500750883120313FF007408BD
:1022180084000A168A1100200A168A11003A031946
:10222800080076087107F4007208F3000318F30A2F
:10223800F61BF3037308F500750883120313FF00F8
:10224800740884000A168A1100200A168A110A16D0
:102258008A112C200A168A110130F6070318F70A8A
:102268000030F707FC28F601F31F4129F209F309AA
:10227800F20A0319F30AF601F60AF11F4829F009D0
:10228800F109F00A0319F10A700871040319752994
:10229800F501F50AF11B5C2901300310F00DF10D71
:1022A800FF3E031D51290130F4007408F5074E293B
:1022B80071087302031D622970087202031C6A29DF
:1022C8007008F2027108031CF303F30201300310D3
:1022D800F10CF00CFF3E031D6B290130F502031DC4
:1022E8005C29760803197D29F209F309F20A031912
:1022F800F30A7308F1007208F00008000A168A1140
:1023080034200A168A117308F1007208F0000A12C4
:102318008A110F200A168A110330F5009730F4004D
:10232800F40B9429F50B94299929831203131F158B
:102338001F199C29831603131E08F400F50174085D
:10234800F6007508F700831203131E03031DB42952
:102358007608003EF60077080318013E013ECB29B7
:1023680002301E06031DC0297608003EF6007708D5
:102378000318013E023ECB2903301E06031DCC295B
:102388007608003EF60077080318013E033EF70082
:102398007708F3007608F200080083160313860115
:1023A800831203138601861106114E30F600EB30B6
:1023B800F500F50BDD29F60BDD2930300A168A11F8
:1023C80044200A168A111A30F600F830F500F50B89
:1023D800EB29F60BEB29000030300A168A1144204D
:1023E8000A168A110D30F600FB30F500F50BFA29B4
:1023F800F60BFA29FF2920300A168A1144200A16FA
:102408008A110D30F600FB30F500F50B092AF60BA2
:10241800092A0E2A28300A168A1193200A168A11C8
:1024280006300A168A1193200A168A110E300A16E7
:102438008A1193200A168A1101300A168A119320EC
:102448000800F601F11F2F2AF009F109F00A031913
:10245800F10AF601F60AF31F3A2AF209F309F20A19
:102468000319F30A0130F4007408F606F701F801BD
:10247800700871040319712AF501F50AF11B502A35
:1024880001300310F00DF10DFF3E031D452A013008
:10249800F4007408F507422A01300310F70DF80D0F
:1024A800FF3E031D512A71087302031D5D2A70083F
:1024B8007202031C662A7008F2027108031CF303F7
:1024C800F302771401300310F10CF00CFF3E031DEA
:1024D800672A0130F502031D502A76080319792A64
:1024E800F709F809F70A0319F80A7808F1007708D4
:1024F800F0000800031306142930B4009630B30026
:10250800A630B200B20B862AB30B862AB40B862AF1
:102518000A128A11772C7D08803A83120313B200BD
:102528002308803A3202031D9B2A22087C020318E2
:10253800632B7D08803A83120313B2002508803A82
:102548003202031DA92A24087C020318632B831274
:1025580003132708803AB2007D08803A3202031D2F
:10256800B72A7C0826020318632B83120313290851
:10257800803AB2007D08803A3202031DC52A7C08E1
:1025880028020318632B0A128A1104200A168A11DA
:102598000030F1008830F2000A168A11FA200A1673
:1025A8008A118630F5008830F6000A168A11BD2097
:1025B8000A168A110230F5000030F6000A168A1150
:1025C80067200A168A116230F5008930F6000A166B
:1025D8008A11BD200A168A118312031306142930A2
:1025E800B4009630B300A630B200B20BF92AB30B90
:1025F800F92AB40BF92A8C2A7D08803A831203132E
:10260800B2002308803A3202031D0C2B22087C02F8
:102618000318662B831203132508803AB2007D083D
:10262800803A3202031D1A2B7C0824020318662BF9
:102638007D08803A83120313B2002708803A3202D9
:10264800031D282B26087C020318662B7D08803A78
:1026580083120313B2002908803A3202031D362B75
:1026680028087C020318662B0A128A1104200A160D
:102678008A110030F1008830F2000A168A11FA2017
:102688000A168A118630F5008830F6000A168A1173
:10269800BD200A168A110230F5000030F6000A162D
:1026A8008A1167200A168A116E30F5008930F60003
:1026B8000A168A11BD2083120A128A1170280A127A
:1026C8008A11992E0A128A11A72E0313061429308B
:1026D800B4009630B300A630B200B20B712BB30B26
:1026E800712BB40B712B0A128A11772C7D08803A52
:1026F80083120313B2002308803A3202031D862B8B
:1027080022087C0203184E2C7D08803A831203139A
:10271800B2002508803A3202031D942B24087C025B
:1027280003184E2C7D08803A83120313B200270841
:10273800803A3202031DA22B26087C0203184E2C75
:10274800831203132908803AB2007D08803A3202C6
:10275800031DB02B7C08280203184E2C0A128A117C
:1027680004200A168A110030F1008830F2000A1697
:102778008A11FA200A168A118630F5008830F60088
:102788000A168A11BD200A168A110230F500003097
:10279800F6000A168A1167200A168A11A630F50073
:1027A8008930F6000A168A11BD200A168A1183128A
:1027B800031306142930B4009630B300A630B200D3
:1027C800B20BE42BB30BE42BB40BE42B772B7D0873
:1027D800803A83120313B2002308803A3202031DA1
:1027E800F72B22087C020318512C7D08803A8312AB
:1027F8000313B2002508803A3202031D052C240871
:102808007C020318512C831203132708803AB20064
:102818007D08803A3202031D132C7C082602031817
:10282800512C7D08803A83120313B2002908803A9C
:102838003202031D212C28087C020318512C0A128D
:102848008A1104200A168A110030F1008830F2003B
:102858000A168A11FA200A168A118630F50088307D
:10286800F6000A168A11BD200A168A110230F500F0
:102878000030F6000A168A1167200A168A11AA3053
:10288800F5008930F6000A168A11BD2083120A164F
:102898008A117E2A0A128A117D2E0A128A118B2E1B
:1028A800031306142930B4009630B300A630B200E2
:1028B800B20B5C2CB30B5C2CB40B5C2C0A128A1187
:1028C800772C831203132308803AB2007D08803ADC
:1028D8003202031D712C7C0822020318392D831241
:1028E80003132508803AB2007D08803A3202031D9E
:1028F8007F2C7C0824020318392D83120313270820
:10290800803AB2007D08803A3202031D8D2C7C0883
:1029180026020318392D831203132908803AB200BE
:102928007D08803A3202031D9B2C7C08280203187C
:10293800392D0A128A1104200A168A110030F10072
:102948008830F2000A168A11FA200A168A1186308F
:10295800F5008830F6000A168A11BD200A168A1179
:102968000230F5000030F6000A168A1167200A16B0
:102978008A119630F5008930F6000A168A11BD20B2
:102988000A168A118312031306142930B4009630EC
:10299800B300A630B200B20BCF2CB30BCF2CB40BC4
:1029A800CF2C622C7D08803A83120313B2002308CF
:1029B800803A3202031DE22C22087C0203183C2DC7
:1029C8007D08803A83120313B2002508803A320248
:1029D800031DF02C24087C0203183C2D7D08803A46
:1029E80083120313B2002708803A3202031DFE2C1B
:1029F80026087C0203183C2D7D08803A83120313B5
:102A0800B2002908803A3202031D0C2D28087C02E6
:102A180003183C2D0A128A1104200A168A11003064
:102A2800F1008830F2000A168A11FA200A168A1173
:102A38008630F5008830F6000A168A11BD200A167D
:102A48008A110230F5000030F6000A168A11672054
:102A58000A168A119E30F5008930F6000A168A1186
:102A6800BD2083120A168A11692B0A128A11612E57
:102A78000A128A116F2E031306142930B4009630F7
:102A8800B300A630B200B20B472DB30B472DB40BE1
:102A9800472D0A128A11772C831203132308803AD0
:102AA800B2007D08803A3202031D5C2D7C082202A8
:102AB8000318242E831203132508803AB2007D08D8
:102AC800803A3202031D6A2D7C0824020318242E42
:102AD8007D08803A83120313B2002708803A320235
:102AE800031D782D26087C020318242E8312031355
:102AF8002908803AB2007D08803A3202031D862DEB
:102B08007C0828020318242E0A128A1104200A16A7
:102B18008A110030F1008830F2000A168A11FA2072
:102B28000A168A118630F5008830F6000A168A11CE
:102B3800BD200A168A110230F5000030F6000A1688
:102B48008A1167200A168A118630F5008930F60046
:102B58000A168A11BD200A168A1183120313061455
:102B68002930B4009630B300A630B200B20BBA2DAB
:102B7800B30BBA2DB40BBA2D4D2D831203132308B2
:102B8800803AB2007D08803A3202031DCD2D7C08C0
:102B980022020318272E831203132508803AB20055
:102BA8007D08803A3202031DDB2D7C0824020318BD
:102BB800272E831203132708803AB2007D08803A33
:102BC8003202031DE92D7C0826020318272E7D08F2
:102BD800803A83120313B2002908803A3202031D97
:102BE800F72D28087C020318272E0A128A110420C0
:102BF8000A168A110030F1008830F2000A168A118C
:102C0800FA200A168A118630F5008830F6000A166E
:102C18008A11BD200A168A110230F5000030F6002C
:102C28000A168A1167200A168A118E30F500893033
:102C3800F6000A168A11BD2083120A168A11542C2E
:102C48000A128A11452E0A128A11532E03130614EA
:102C58002930B4009630B300A630B200B20B322E41
:102C6800B30B322EB40B322E0A128A11772C831230
:102C780003132308803AB2007D08803A3202031D0C
:102C8800472E7C08220203180F2F7D08803A8312F2
:102C98000313B2002508803A3202031D552E24087A
:102CA8007C0203180F2F831203132708803AB200FF
:102CB8007D08803A3202031D632E7C082602031821
:102CC8000F2F831203132908803AB2007D08803A37
:102CD8003202031D712E7C08280203180F2F0A12D6
:102CE8008A1104200A168A110030F1008830F20097
:102CF8000A168A11FA200A168A118630F5008830D9
:102D0800F6000A168A11BD200A168A110230F5004B
:102D18000030F6000A168A1167200A168A117630E2
:102D2800F5008930F6000A168A11BD200A168A11A4
:102D38008312031306142930B4009630B300A6306A
:102D4800B200B20BA52EB30BA52EB40BA52E382EB0
:102D5800831203132308803AB2007D08803A3202B6
:102D6800031DB82E7C0822020318122F83120313A6
:102D78002508803AB2007D08803A3202031DC62E2B
:102D88007C0824020318122F7D08803A831203134B
:102D9800B2002708803A3202031DD42E26087C028E
:102DA8000318122F7D08803A83120313B2002908F2
:102DB800803A3202031DE22E28087C020318122FE3
:102DC8000A128A1104200A168A110030F10088308C
:102DD800F2000A168A11FA200A168A118630F500BE
:102DE8008830F6000A168A11BD200A168A110230A8
:102DF800F5000030F6000A168A1167200A168A11B3
:102E08007E30F5008930F6000A168A11BD2083123B
:102E18000A168A113F2D0A128A11292E0A128A11BE
:102E2800372E031306142930B4009630B300A630A9
:102E3800B200B20B1D2FB30B1D2FB40B1D2F0A129E
:102E48008A11772C831203132308803AB2007D0875
:102E5800803A3202031D322F7C0822020318FA2F0F
:102E68007D08803A83120313B2002508803A3202A3
:102E7800031D402F24087C020318FA2F7D08803A8E
:102E880083120313B2002708803A3202031D4E2F23
:102E980026087C020318FA2F831203132908803AA4
:102EA800B2007D08803A3202031D5C2F7C0828029C
:102EB8000318FA2F0A128A1104200A168A111530EB
:102EC800F1008930F2000A168A11FA200A168A11CE
:102ED8004430F5008930F6000A168A11BD200A161A
:102EE8008A110230F5000030F6000A168A116720B0
:102EF8000A168A11B930F5008930F6000A168A11C7
:102F0800BD200A168A118312031306142930B4004F
:102F18009630B300A630B200B20B902FB30B902FAF
:102F2800B40B902F232F831203132308803AB20087
:102F38007D08803A3202031DA32F7C082202031861
:102F4800FD2F7D08803A83120313B2002508803ACA
:102F58003202031DB12F24087C020318FD2F8312AF
:102F680003132708803AB2007D08803A3202031D15
:102F7800BF2F7C0826020318FD2F7D08803A831294
:102F88000313B2002908803A3202031DCD2F280806
:102F98007C020318FD2F0A128A1104200A168A11CE
:102FA8000030F1008830F2000A168A11FA200A1659
:102FB8008A118630F5008830F6000A168A11BD207D
:102FC8000A168A110230F5000030F6000A168A1136
:102FD80067200A168A116A30F5008930F6000A1649
:102FE8008A11BD2083120A168A112A2E0A128A1102
:082FF8000D2E0A128A111B2E96
:02400E003ADE98
:00000001FF
